:020000040800F2
:100000000008002089010008391F0008C31C0008EF
:10001000ED1E0008710300086D25000800000000B7
:100020000000000000000000000000003F1F00086A
:100030008D030008000000003B1F0008F1200008AD
:10004000A3010008A3010008A3010008A301000800
:10005000A30100083D1F0008A3010008A301000838
:10006000A3010008A3010008A3010008A3010008E0
:10007000A3010008A301000875030008810300081C
:10008000A3010008A301000891020008A3010008D1
:10009000A3010008A3010008A3010008A3010008B0
:1000A000A3010008A3010008A3010008A3010008A0
:1000B00071210008A3010008A3010008A3010008A2
:1000C000A3010008A3010008A3010008A301000880
:1000D000A301000801250008A3010008A3010008EE
:1000E000A3010008A3010008A301000800F002F822
:1000F00000F03AF80AA090E8000C82448344AAF188
:100100000107DA4501D100F02FF8AFF2090EBAE885
:100110000F0013F0010F18BFFB1A43F0010318473B
:1001200094250000B4250000103A24BF78C878C197
:10013000FAD8520724BF30C830C144BF04680C60ED
:10014000704700000023002400250026103A28BF35
:1001500078C1FBD8520728BF30C148BF0B60704739
:100160001FB51FBD10B510BD00F058F81146FFF7C0
:10017000F7FF02F00DFA00F076F803B4FFF7F2FF94
:1001800003BC00F07DF8000009488047094800479B
:10019000FEE7FEE7FEE7FEE7FEE7FEE7FEE7FEE737
:1001A000FEE7FEE704480549054A064B7047000094
:1001B0006D210008ED00000800020020000800206A
:1001C00000040020000400204FF0000200B5134698
:1001D00094469646203922BFA0E80C50A0E80C5067
:1001E000B1F12001BFF4F7AF090728BFA0E80C5018
:1001F00048BF0CC05DF804EB890028BF40F8042B11
:1002000008BF704748BF20F8022B11F0804F18BF7D
:1002100000F8012B7047704770477047754600F033
:100220002BF8AE4605006946534620F00700854688
:1002300018B020B5FFF7B6FFBDE820404FF000062C
:100240004FF000074FF000084FF0000B21F00701BE
:10025000AC46ACE8C009ACE8C009ACE8C009ACE801
:10026000C0098D46704710B50446AFF300802046A4
:10027000BDE81040FFF781BF00487047A001002093
:1002800001491820ABBEFEE72600020070470000BF
:10029000014800F001B900005800002070B5044684
:1002A00000688168C943C90717D1816821F001013D
:1002B000816000F05BFD05460AE000BF00F056FDDE
:1002C000401B022804D920688068C043C00706D0BC
:1002D00020688068C043C007F0D0002070BDA06ACD
:1002E00040F01000A062E06A40F00100E0620120EE
:1002F00070BD0000F8B500260446009600688168CD
:10030000C943C9072DD0816841F0010181601648B9
:1003100016490068B0FBF1F000E0401E0090002894
:10032000FBD100F023FD054616E000BF00F01EFDE6
:10033000401B022810D920688068C043C0070BD03A
:10034000A06A40F01000A062E06A40F00100E062A4
:1003500084F824600120F8BD20688068C043C0078D
:10036000E4D10020F8BD00005400002040420F00FE
:10037000FEE70000014800F027BB00005C01002000
:10038000014800F021BB000018010020704772B640
:10039000FEE77047F8B50024009490F82420254625
:1003A000012A12D0012280F824204A681F23072A3C
:1003B0000DD20668776B521E02EB820293409F4378
:1003C0000B6893401F43776319E00220F8BD06686D
:1003D0000D2A0AD2376BD21F02EB820293409F4351
:1003E0000B6893401F43376309E0F76A0D3A02EB4D
:1003F000820293409F430B6893401F43F7620A6851
:10040000072306680A2A0AD3F7680A3A02EB42026F
:1004100093409F438B6893401F43F76008E0376920
:1004200002EB420293409F438B6893401F43376126
:100430000A68102A01D0112A20D1124B02689A4270
:1004400017D193681B0219D4936843F40003936097
:100450000968102912D10C490C4A0968B1FBF2F164
:1004600001EB8101490000E0491E00910029FBD108
:1004700004E0816A41F020018162012480F8245067
:100480002046F8BD002401405400002040420F00E7
:1004900070470068C06C704770B504460068066815
:1004A0004568A90625D5B10723D5A16AC90603D495
:1004B000A16A41F40071A1628168C1F34241072938
:1004C00010D1217B71B9416821F020014160A06AFF
:1004D00020F48070A062A06AC00403D4A06A40F037
:1004E0000100A0622046FFF7D3FF21686FF01200E1
:1004F000086028062ED570072CD5A06AC00603D444
:10050000A06A40F40050A06220688168C1F3023103
:10051000072909D04168490515D48168C1F34241D2
:10052000072910D1217B71B9416821F08001416018
:10053000A06A20F48050A062A06AC00503D4A06A1B
:1005400040F00100A0622046FFF723FF21686FF012
:100550000C00086068060CD5F0070AD0A06A40F4C9
:100560008030A062204600F093F821686FF001000F
:10057000086070BD2DE9F0414FF0000704003D46D2
:100580007ED0A06A002628B9E66284F8246020465E
:1005900000F080F82046FFF781FEA16AC90600D46A
:1005A00020B1A06A40F01000A06269E0A16A21F4C5
:1005B000885141F00201A1626268E169237B0A432C
:1005C00047EA43010A43A1684FF48077B94209D052
:1005D000012907D05FF0000194F814C0BCF1010FAD
:1005E00002D00AE03946F7E7F3B1A36A43F02003EB
:1005F000A362E36A43F00103E3622368D3F804C013
:100600002CF4694C4CEA010CC3F804C021688B68D7
:10061000DFF870C003EA0C0313438B60A168B94292
:100620000BD0012909D00CE0DFF85CC0A3690CEB0A
:1006300043330B4343F40061DFE7218A0D05A5F541
:1006400080152168CB6A23F470032B43CB622168A9
:1006500089680E4B1940914208D1E662A16A21F0E7
:10066000020141F00101A162BDE8F081A06A20F021
:10067000020040F01000A062E06A40F00100E06279
:100680000120F1E7FDF7E1FF00E0FFFFFE0E1FFF95
:100690007047000000B585B00021009101910291E2
:1006A000039100680E49884218D10E48816941F4CF
:1006B00000718161816901F400710491816941F0E7
:1006C000040181618069694600F004000490012002
:1006D000009003200190044800F04EFA05B000BDE0
:1006E0000024014000100240000801402DE9F843B9
:1006F00000270D460446009700F038FB804620682E
:100700008168C90508D5A06A40F02000A06284F87D
:1007100024700120BDE8F8834168C90503D4C06A8C
:1007200010F4700F2AD0022000F0BEFB3B4909688C
:10073000B1FBF0F62068036939490B424FEA6101C9
:100740004FEAA1121FD1C3684FEA611C13EA0C0FD4
:1007500019D103690B4225D1C068104222D114205F
:1007600023E0681C0AD02DB100F000FBA0EB0800CC
:10077000A84203D920680068800725D52068006852
:100780008007EED52DE003690B4202D1C16811420A
:1007900006D0026923490A4206D1C068084203D143
:1007A000542002E0292000E0FC204643009816E097
:1007B000681C11D02DB100F0D9FAA0EB0800A842B6
:1007C0000AD90098B04207D2A06A40F00400A062A3
:1007D00084F8247003209DE70098401C0090B042EC
:1007E000E6D321686FF012000860A06A40F4007040
:1007F000A06220688068C0F3424007280CD1207BAB
:1008000050B9A06A20F48070A062A06AC00403D42A
:10081000A06A40F00100A06200207BE754000020A5
:10082000244992244992240070B5044690F824008B
:1008300001280DD0012084F824002046FFF75AFD3E
:1008400002004FF0000005D084F82400104670BD6F
:10085000022070BDA16A40F20123994341F48071E6
:10086000A1621F4D23681F49AB4218D10E6816F4D0
:10087000702F14D0A66A46F48016A6620E6876051C
:1008800005D5A66A26F4005646F48056A662A66AE6
:10089000F6040AD5E66A26F00606E66206E0A66ACF
:1008A00026F48016A6625E68E9E7E06284F8240018
:1008B0006FF00200186020688368C3F34243072B7F
:1008C00005D1A84208D1096811F4702F04D08168BD
:1008D00041F480118160B9E7816841F4A001F9E732
:1008E000002801400424014010B590F82110002296
:1008F000022905D00421816380F82020012010BD49
:1009000001680B6823F00E030B6001680B6823F08D
:1009100001030B6090F84030C46B012101FA03F32E
:10092000636080F8211080F82020104610BD000080
:1009300010B590F821100024022903D0042181630E
:1009400001243DE001680A6822F00E020A60016895
:100950000A6822F001020A601A4A0168914201D134
:10096000012121E0174A1432914201D110211BE0EC
:10097000144A2832914201D1891515E0114A3C32BE
:10098000914201D189140FE00E4A5032914202D1B6
:100990004FF4803108E00B4A6432914202D14FF4A7
:1009A000801101E04FF08071064A083A5160012140
:1009B00080F82110002180F82010416B01B1884798
:1009C000204610BD080002402DE9F05FC16B0C68A5
:1009D00001680B68D0F840C0042202FA0CF2494DBD
:1009E000DFF824A1494E4A4FDFF828B1DFF828E1AB
:1009F00022422CD05A072AD50A68920603D40A68E4
:100A000022F004020A600168A94201D1042219E01F
:100A1000514501D1402215E0B14202D14FF480622C
:100A200010E0B94202D14FF480420BE0594502D1A7
:100A30004FF4802206E0714502D14FF4800201E0BC
:100A40004FF080622F4908394A60C16A3BE04FF09D
:100A5000020808FA0CF818EA040F4FF000094FF0EA
:100A6000010235D05FEA837832D50B689B0605D446
:100A70000B6823F00A030B6080F821200168A9426B
:100A800001D1022219E0514501D1202215E0B142E5
:100A900002D14FF4007210E0B94202D14FF400527B
:100AA0000BE0594502D14FF4003206E0714502D106
:100AB0004FF4001201E04FF00072124908394A6009
:100AC00080F82090816A00291AD0BDE8F05F0847BD
:100AD000082505FA0CF5254212D01B0710D50B6826
:100AE00023F00E030B6090F84010C36B02FA01F183
:100AF0005960826380F8212080F82090016BE2E742
:100B0000BDE8F09F080002401C0002403000024097
:100B100044000240580002406C00024030B528B347
:100B200008C8134914221944B1FBF2F18900C163CA
:100B300010498163022141771A6843F6F0718A43B4
:100B4000D0E900142143D0E902452C432143046934
:100B500021434469214384692143114319600021E1
:100B60004163012242770177084630BD012030BD44
:100B7000F8FFFDBF000002402DE9F84FDFF8B89103
:100B80000024A9F1040B23460F2709F1040AABF155
:100B9000040EC9E00125A5402A40AA427DD1674E36
:100BA000D1F804C0ACEB0608B44532D014DCBCF17B
:100BB000030F3AD009DCBCF1000F2AD0BCF1010FC1
:100BC0001CD0BCF1020F31D11DE0BCF1110F17D0C8
:100BD000BCF1120F2AD119E0B8F5881F19D006DC34
:100BE000B8F5803F15D0B8F5801F1FD111E0B8F5DA
:100BF000001F0ED0B8F5041F18D10AE0CB6815E02D
:100C0000CB681B1D12E0CB6808330FE0CB680C33B8
:100C10000CE08B682BB1012B4FF0080303D045612A
:100C200004E0042302E0056100E00023FF2A01D86C
:100C3000064601E000F104064FEA840501D9A5F15A
:100C40002005D6F8008007FA05FC28EA0C0803FA0C
:100C500005F548EA0508C6F800804D68ED0062D544
:100C6000374DAE6946F00106AE61AD6924F003066A
:100C700005F001050095334D06EB050CDCF8085036
:100C8000A607360F07FA06F825EA0805DFF8B88048
:100C9000404503D14FF0000817E044E0DFF8AC8096
:100CA000404502D14FF001080FE0DFF8A480404535
:100CB00002D14FF0020808E0DFF89880404502D1E9
:100CC0004FF0030801E04FF0040808FA06F848EA7C
:100CD0000508CCF808804D68D9F80060ED024D4653
:100CE00001D5164300E096432E604D68DAF80060A7
:100CF000AD02554601D5164300E096432E604D687F
:100D0000DBF80060AD035D4601D5164300E0964375
:100D10002E604D68DEF80060ED03754601D5164380
:100D200000E096432E60641C0D682A46E5407FF47F
:100D300031AFBDE8F88F0000080401400000111039
:100D4000001002400000014000080140000C01407A
:100D500000100140001401408068084000D00120CC
:100D600070470AB1016170470904FBE701488068D8
:100D70007047000048000020024881680278114452
:100D80008160704748000020074810B5016841F0B5
:100D900010010160032000F075F80F2000F006F844
:100DA00000F024F8002010BD0020024070B50D4D69
:100DB00004464FF47A712878B1FBF0F00A490968CB
:100DC000B1FBF0F000F0A4FB48B9102C07D20022D0
:100DD0002146501E00F036F800206C6070BD0120E6
:100DE00070BD000048000020540000200C4808B5E9
:100DF000816941F001018161816901F00101009186
:100E0000C16941F08051C161C06900F0805000901B
:100E10000448416821F0E06141F00071416008BD83
:100E20000010024000000140002809DB00F01F0212
:100E3000012191404009800000F1E020C0F800113C
:100E400070470000F0B40E4B1B680C46C3F302233E
:100E5000C3F10705042D00D90425191D072901D266
:100E6000002300E0DB1E012606FA05F1491E2140A1
:100E700099409E40761E16403143F0BC01F077BB8E
:100E80000CED00E0064900F0070208684FF6FF038A
:100E9000184040EA0220034A1043086070470000EF
:100EA0000CED00E00000FA0510B501460020234CCF
:100EB000012922D0022939D010291DD16168226868
:100EC000D20119D51E48C1F38342C903805C0AD5FB
:100ED00061681B4AC1F34041921E515C194AB2FB42
:100EE000F1F1484301E0184948436168490203D4DD
:100EF00040000321B0FBF1F010BD226AC2F30121D2
:100F0000012903D1920701D5C80310BD022905D1DB
:100F1000626A920702D549F6404010BD0329FCD110
:100F200021688903F9D54FF2244010BD00F02AF959
:100F30006168C1F38131491C4900DBE700100240C0
:100F40008C26000800127A0000093D002DE9F843C4
:100F500005460078354CC00754D0E0690026C00033
:100F600008D4E06940F08050E061E069012600F0BB
:100F7000805000902E480168C90512D4016880464F
:100F800041F480710160FFF7F1FE074605E000BF04
:100F9000FFF7ECFEC01B642823D8D8F80000C0057A
:100FA000F6D5206A10F4407021D0A98801F4407170
:100FB00081421CD0206A1F49012220F440700A603F
:100FC00000220A602062C00711D0FFF7CFFE07465B
:100FD00041F2883808E000BFFFF7C8FEC11B414559
:100FE00002D90320BDE8F883206A8007F4D5206A7F
:100FF000696820F44070084320621EB1E06920F067
:101000008050E0612878800705D56068A96820F4E1
:101010004040084360602878C00605D56068E968EC
:1010200020F48000084360600020DBE700100240ED
:1010300000700040400442422DE9F0470F46050091
:1010400061D0434E306800F00700B84209D23068E2
:1010500020F0070038433060306800F00700B842E5
:1010600051D128683B4C810712D5400703D56068F1
:1010700040F4E06060602878000703D5606840F4C1
:10108000605060606068A96820F0F000084360600C
:101090002878C00728D06868012810D02168022865
:1010A00010D0890700292EDA616821F0030101437D
:1010B0006160FFF75BFE804641F288390DE02168F0
:1010C0008903EFE78901EDE7FFF750FEA0EB080188
:1010D000494502D90320BDE8F0876068696800F0DF
:1010E0000C00B0EB810FEFD1306800F00700B84280
:1010F0000BD9306820F0070038433060306800F0CA
:101100000700B84201D00120E5E72878400705D55F
:101110006068E96820F4E0600843606028780007B0
:1011200006D56068296920F4605040EAC10060601B
:1011300000F038F86168084AC1F30311515CC840F7
:101140000649086006480068FFF730FE0020C2E745
:1011500000200240001002409C260008540000209D
:101160004C0000200448054900684968044AC1F35E
:101170000221515CC840704754000020001002401A
:10118000AC2600080448054900684968044AC1F3D0
:10119000C221515CC840704754000020001002403A
:1011A000AC2600080E4A51680E4801F00C03042BCF
:1011B00011D0082B0FD10C48C1F38343C903C05C85
:1011C0000AD55168084AC1F34041921E515C054A54
:1011D0005043B0FBF1F070470449484370470000AA
:1011E0000010024000127A007A26000800093D0033
:1011F0002DE9F84F040070D02078C04DC00749D0C9
:101200006868C0F38100012807D06868C0F38100D6
:10121000022809D16868C00306D52868800339D53B
:1012200060680028E7D035E06068B0F5803F0BD0FB
:1012300010B1B0F5A02F11D0286820F480302860BC
:10124000286820F4802002E0286840F4803028607C
:10125000606890B1FFF78AFD06460AE0286840F40E
:1012600080202860F0E700BFFFF780FD801B642826
:1012700073D828688003F7D50CE0FFF777FD0646A2
:1012800005E000BFFFF772FD801B6428F0D82868D6
:101290008003F7D420789A4E80074FF001094FF071
:1012A000000839D5686810F00C0F07D06868C0F3E3
:1012B0008100022809D16868C00306D42868800725
:1012C00014D52069012808D110E02069B0B1C6F812
:1012D0000090FFF74BFD074605E00AE1FFF746FDEA
:1012E000C01B0228C4D828688007F7D52868616920
:1012F00020F0F80040EAC10028600DE0C6F8008048
:10130000FFF734FD074604E0FFF730FDC01B02285D
:1013100023D828688007F7D4207800072CD579488F
:10132000A169D9B1C0F80090FFF720FD074604E09D
:10133000FFF71CFDC01B02280FD8686A8007F7D58D
:1013400071484FF4FA510068B0FBF1F0009000BF13
:101350000098411E0091FAD20EE080E0C0F80080B3
:10136000FFF704FD074604E0FFF700FDC01B02285D
:1013700075D8686A8007F7D42078400760D5E86997
:101380000027C00008D4E86940F08050E861E869AF
:10139000012700F0805000905C480168C90513D413
:1013A0000168834641F480710160FFF7DFFC8246EB
:1013B00006E000BFFFF7DAFCA0EB0A0064284ED875
:1013C000DBF80000C005F5D5E06801280AD008B1B7
:1013D000052813D0286A20F001002862286A20F02E
:1013E000040002E0286A40F001002862E06841F24F
:1013F000883B98B1FFF7BAFC82460BE0286A40F0C0
:1014000004002862EEE700BFFFF7B0FCA0EB0A0182
:1014100059455AD8286A8007F6D50CE0FFF7A6FC94
:10142000824605E0FFF7A2FCA0EB0A0159454CD823
:10143000286A8007F6D41FB1E86920F08050E8617F
:10144000E06988B36968C1F38101022944D00228A8
:10145000C6F8608004D0FFF789FC044638E034E029
:10146000FFF784FC074604E0FFF780FCC01B02285E
:101470002BD828688001F7D4206AB0F5803F05D1C9
:101480006868A16820F4003008436860D4E9080166
:101490000843696821F4741108436860C6F86090D5
:1014A000FFF764FC044606E025E000BFFFF75EFCA2
:1014B000001B022809D828688001F7D51BE000BF6F
:1014C000FFF754FC001B022802D90320BDE8F88F67
:1014D00028688001F4D40EE00128F7D06868226AF9
:1014E00000F48031914204D1616A00F470108842A6
:1014F00001D00120EAE70020E8E7000000100240E8
:10150000000042428004424254000020007000402B
:1015100010B5401EB0F1807F01D3012010BD4FF007
:10152000E02460610F21601701F021F80020A06124
:1015300007202061002010BD7047704770B590F8FB
:101540003C20012A26D0012480F83C40022280F869
:101550003D2003685A689D6822F070060A6832438D
:101560005A600D4B02689A4208D0B2F1804F05D004
:101570000A4B9A4202D00A4B9A4204D1496825F09C
:1015800080031943916080F83D40002180F83C10B1
:10159000084670BD022070BD002C014000040040D0
:1015A0000008004010B5040003D094F83D0010B1CD
:1015B00007E0012010BD002084F83C00204600F028
:1015C0001FF8022084F83D00211D206800F004FE71
:1015D000012084F8460084F83E0084F83F0084F837
:1015E000400084F8410084F8420084F8430084F805
:1015F000440084F8450084F83D00002010BD000040
:1016000008B50068B0F1804F08D10548C16941F0C4
:101610000101C161C06900F00100009008BD000037
:101620000010024090F83D10012901D001207047C0
:10163000022180F83D100168CA6842F00102CA60C8
:1016400000680B49884208D0B0F1804F05D00949A5
:10165000884202D00849884204D1816801F007011C
:10166000062903D0016841F00101016000207047A4
:10167000002C0140000400400008004070B5044602
:1016800090F83C000025012817D0012684F83C6022
:10169000022084F83D002068826822F0770222F45C
:1016A0007F4282600868502838D00DDC20284FD057
:1016B00005DC90B3102811D14AE0022070BD30281B
:1016C00046D040280AD13BE060282FD070280DD0AA
:1016D000B0F5805F03D0B0F5005F12D0012584F82B
:1016E0003D60002084F83C00284670BDCB68D1E9FD
:1016F0000121206800F0A6FD2068816841F0770193
:1017000009E0CB68D1E90121206800F09BFD206849
:10171000816841F480418160E1E719E0CA68496865
:10172000206800F0A1FD5021206806E0CA684968E1
:10173000206800F0AAFD6021206800F08DFDCEE752
:10174000CA684968206800F08FFD40212068F4E7EE
:10175000226801461046F0E7704770B504460068FD
:1017600001694FF00005C943890715D4C168C94311
:10177000890711D4E91E0161012020772068806962
:101780008007204602D0FFF7E7FF04E000F098F85A
:10179000204600F096F8257720680169C94349077B
:1017A00017D4C168C943490713D46FF0040101611C
:1017B000022020772068806910F4407F204602D004
:1017C000FFF7CAFF04E000F07BF8204600F079F84C
:1017D000257720680169C943090716D4C168C94340
:1017E000090712D46FF008010161042020772068F6
:1017F000C0698007204602D0FFF7AEFF04E000F08A
:101800005FF8204600F05DF8257720680169C9433C
:10181000C90617D4C168C943C90613D46FF01001B3
:101820000161082020772068C06910F4407F2046BD
:1018300002D0FFF791FF04E000F042F8204600F0EC
:1018400040F8257720680169C943C90708D1C168F4
:10185000C943C90704D1891E0161204600F032F84E
:1018600020680169C943090609D4C168C94309064A
:1018700005D46FF0800101612046FFF75DFE20680E
:101880000169C943490609D4C168C943490605D459
:101890006FF040010161204600F015F820680169F1
:1018A000C94389060BD4C168C943890607D46FF0C0
:1018B000200101612046BDE87040FFF73EBE70BDCB
:1018C000704770477047704770477047F8B50168B8
:1018D00004460868CA684B6910F00F0F4FF0000506
:1018E00059D003F0010602F49077374365D0C10761
:1018F00005D0D10503D5616C41F001016164410758
:1019000005D5D90703D0616C41F0020161648107FC
:1019100005D5D90703D0616C41F00401616401076A
:1019200007D502F02001314303D0616C41F008017A
:101930006164616C00293AD0800604D5900602D516
:10194000204600F004FD20684069616CC0F38010FF
:10195000090700D460B3204600F0D2FC206840693B
:10196000400621D52068143050E8001F21F04001C6
:1019700040E80012002AF5D1E06BA8B16D4941633F
:10198000E06BFEF7D5FF002811D0E06B416B01B092
:10199000BDE8F040084783060FD593060DD52046D5
:1019A000BDE8F84000F0D3BC2046FFF78EFFF8BD3D
:1019B0002046FFF78AFF6564F8BD266B2023012EC1
:1019C0007CD1C6067AD5D60678D5086848680090D6
:1019D00048694FF00206400640D5E16B0868406850
:1019E0000004000CE8D0A28D8242E5D9E085886928
:1019F00020282DD020680C3050E8001F21F4807181
:101A000040E80012002AF5D12068143050E8001F89
:101A100021F0010140E80012002AF5D120681430BD
:101A200050E8001F21F0400140E80012002AF5D1E3
:101A300084F84230256320680C3050E8001F21F004
:101A4000100140E80012002AF5D1E06BFEF74CFFD0
:101A50006663A08DE18D401A81B22AE0A08DE18DF0
:101A6000401A81B2E08D0028A6D00029A4D02268B7
:101A70000C3252E8000F20F4907042E80007002F6B
:101A8000F5D12068143050E8002F22F0010240E820
:101A90000027002FF5D184F84230256320680C30F0
:101AA00050E8002F22F0100240E80023002BF5D16F
:101AB00066632046FFF708FFF8BDFFE705062BD554
:101AC000150629D594F841002128F5D1A068B0F574
:101AD000805F01D12069B0B1206A411C2162216878
:101AE00000784860E08C401E0004000CE084E3D1E4
:101AF0002068C16821F08001C1602068C16841F0A0
:101B00004001C160D8E7206A0088C0F3080048603F
:101B1000206A801C2062E5E74006CDD55006CBD573
:101B2000CA68204622F04002CA6084F8413000F0C2
:101B3000C7F8C1E7F122000870B5040004D094F89A
:101B40004100002510B106E0012070BD84F840502E
:101B5000204600F023F8242084F841002068C16862
:101B600021F40051C160204600F052FC2068016958
:101B700021F4904101612068416921F02A0141610D
:101B80002068C16841F40051C1606564202084F878
:101B9000410084F842006563002070BD2DE9F041EA
:101BA00086B00024064600940194029403940068D1
:101BB000294988424CD12948816941F48041816199
:101BC000816901F480410491816941F004018161DE
:101BD0008069234D00F0040004904FF400700090E1
:101BE000022001900320039069462846FEF7C4FFB7
:101BF0004FF48068CDE90084694628460294FEF7D8
:101C0000BBFF194D17488027C5E90004C5E9024705
:101C10002C616C61AC612846EC61FEF77FFF08B176
:101C2000FEF7B5FBF5636E620E48104D143801C522
:101C3000102091C5000145F810090C48C5E905843C
:101C4000EC61FEF76BFF08B1FEF7A1FBB5636E62B6
:101C500006B0BDE8F08100000038014000100240ED
:101C60000008014058000240180100205C010020DB
:101C700090F84230202B01D00220704721B11AB1D8
:101C80000023036300F020BC01207047704790F8E8
:101C90004130202B01D00220704779B172B101622E
:101CA0008284C28400214164212180F841100068AF
:101CB000C16841F08001C160002070470120704779
:101CC0007047FEE770B5184D4FF400612846FFF7E6
:101CD00043F8164C082120741548FFF73DF860754D
:101CE000A9142846FFF738F820754FF4004128461C
:101CF000FFF732F86074217C71B178B1207D78B142
:101D0000607D78B10020A074E17C814203D000F0B6
:101D1000CFFAA07CE07470BD0420F4E70320F2E762
:101D20000220F0E70120EEE700080140000000205B
:101D3000000C01403EB50024104800940194029428
:101D40000D498460016004730475012505614FF439
:101D500060214460C161FEF70DFC08B172B6FEE778
:101D6000CDE90045694605480294FEF713FB0028BB
:101D700001D072B6FEE73EBD0024014058000020AD
:101D800070B586B00024274800940194029403940F
:101D9000816941F010018161816901F010010491B4
:101DA000816941F020018161816901F02001049184
:101DB000816941F004018161816901F004010491AC
:101DC000816941F0080181618069174E00F00800C7
:101DD00004900022F0213046FEF7C3FF7014012565
:101DE0008DE8310069461148FEF7C6FE49F67E00CF
:101DF0008DE8310069460E48FEF7BEFE4FF60B40F7
:101E00008DE8310069463046FEF7B6FEF020CDE998
:101E100000050220CDE9024069463046FEF7ACFEDF
:101E200006B070BD00100240000C014000100140DF
:101E30000008014010B586B00024174800940194B2
:101E40000294039404944FF080410594016041F69C
:101E50001F41C0E9011440F2E731C0E90314846175
:101E6000FFF7A0FB08B172B6FEE74FF48050009078
:101E700069460948FFF702FC08B172B6FEE7049410
:101E800004A905480594FFF759FB002801D072B654
:101E9000FEE706B010BD00008800002010B5022249
:101EA0000F491048FFF7E4FE0D480F4C0078012859
:101EB0000DD0002813D1012280212046FEF751FFCA
:101EC000002240212046BDE81040FEF74ABF012213
:101ED00040212046FEF745FF00228021F2E710BD99
:101EE00020000020D0000020000C0140FEE7000090
:101EF00010B540210D48FEF72FFF0D4C0121A070B9
:101F00000C48FEF729FFE070A17851B158B10220CA
:101F100060702179814203D000F0CAF960782071A5
:101F200010BD0320F4E70120F2E7000000080140A3
:101F300000000020000C0140FEE77047704770472A
:101F400070B50E4D02212846FEF706FF0C4C2915F0
:101F500020732846FEF700FF6073217B51B158B112
:101F60000220A073E17B884203D000F0A1F9A07B9E
:101F7000E07370BD0120F4E70320F2E7000C01409C
:101F80000000002070B51C4D02212846FEF7E4FE3B
:101F90001A4C0421A0712846FEF7DEFEE0710821EC
:101FA0002846FEF7D9FE207210212846FEF7D4FEFF
:101FB000607220212846FEF7CFFEA072A17981B180
:101FC000E17981B1217A81B1617A81B188B1002052
:101FD0006071E17A814203D000F06AF96079E072C1
:101FE00070BD0120F4E70220F2E70320F0E70420AF
:101FF000EEE70520ECE700000008014000000020AB
:1020000070B51848FEF710FC64211648FEF76EFB09
:10201000154E164C00251348FEF73BFAA16A6D1CBD
:102020000844A062B542F6DDB0FBF6F02063616BB8
:1020300001F11902824202D3193981420FD9B42128
:10204000484340F6C571B0FBF1F06062E16A884236
:1020500003D000F02DF9606AE062206B606300201D
:10206000A06270BD58000020A08601000000002082
:1020700070B51D4D4FF400612846FEF76DFE1B4CF8
:10208000A914E0752846FEF767FE207669142846F5
:10209000FEF762FE60764FF480412846FEF75CFE54
:1020A000A0764FF400412846FEF756FEE076E17D2B
:1020B00081B1217E81B1617E81B1A17E81B188B182
:1020C0000020A075217F814203D000F0F1F8A07DAF
:1020D000207770BD0120F4E70220F2E70320F0E74B
:1020E0000420EEE70520ECE7000C01400000002092
:1020F000FEF742BE30B593B028216846FEF764F87B
:1021000014210AA8FEF760F8002501200F9510950C
:102110001195010412958DE8230004904FF4E0100E
:10212000CDE90810022407946846FFF761F808B16A
:1021300072B6FEE70AA90F2081E831004FF48060F3
:10214000CDE90D0502210AA8FEF776FF08B172B6A7
:10215000FEE74FF4004011900F940FA8FEF7F6FE33
:10216000002801D072B6FEE713B030BD7047000002
:1021700010B51248FFF7F1FA114C0A212088401CD3
:1021800080B2B0FBF1F2208001FB1200002813D1D5
:102190000C480D490D4A40780B78984201D1002334
:1021A00000E0012313700870082209490948FFF76D
:1021B0006EFD6088401C608010BD0000880000201B
:1021C0004200002020000020400000201E000020CF
:1021D00038000020D0000020F0B50268164B174CE4
:1021E000174D4FF08047984205D0B84203D0A04227
:1021F00001D0A84203D122F070064A6832439842C7
:1022000005D0B84203D0A04201D0A84203D122F4A5
:102210004074CA6822434C6922F080022243026063
:102220008A68C2620A688262984201D109690163C0
:1022300001214161F0BD0000002C0140000400407C
:102240000008004010B5846842EA032224F47F4469
:102250000A432243826010BD826822F070020A4362
:1022600042F007018160704710B5036A046A24F0E8
:1022700001040462846924F0F00444EA021423F0A7
:102280000A020A438461026210BD10B5036A046A3F
:1022900024F010040462846923F0A00324F4704441
:1022A00044EA023243EA01118261016210BD00007A
:1022B0000D49AA200870A1F1380042784A7042798D
:1022C0008A70827DCA7090F824200A71827C4A71DB
:1022D000827B8A71FF22CA71417F491C41770822A3
:1022E00001490248FFF7D3BC38000020D00000208D
:1022F00010B5406A0021C185C184FFF7E6FA10BD20
:1023000001680C3151E8002F22F4907241E800235B
:10231000002BF5D10168143151E8002F22F00102A1
:1023200041E80023002BF5D1016B012909D1016897
:102330000C3151E8002F22F0100241E80023002B5D
:10234000F5D1202180F8421000210163704708B5C3
:1023500090F84210222901D0022008BD82684FF473
:1023600080539A4201D1016921B1816A9A421BD0FE
:102370004AB10AE00268816A5268C2F308020A8020
:10238000816A891C08E0026972B10268526802F031
:102390007F020A70816A491C8162C18D491E09044D
:1023A000090CC18503D01BE002685268F1E701689F
:1023B000CA6822F02002CA600168CA6822F48072EA
:1023C000CA6001684A6922F001024A61202180F84E
:1023D000421000214163026B012A03D0FFF756FC33
:1023E000002008BD016301680C3151E8002F22F084
:1023F000100241E80023002BF5D101680A68D206DB
:1024000002D50A6849680091818DFFF75DFAE7E718
:1024100070B5044600680169E26821F44051114337
:1024200001612169A0680843616908432168CA689D
:1024300041F20C639A430243CA6020684169A26971
:1024400021F44071114341611E492068884202D144
:10245000FEF798FE01E0FEF785FE00EBC00101EB00
:102460000012606864218000B2FBF0F3B3FBF1F36B
:102470006FF018067343B2FBF0F5B2FBF0F605EB14
:102480008305322303EB0515B5FBF1F5B6FBF1F639
:1024900005F0F00505EB0615B2FBF0F6B2FBF0F027
:1024A000B0FBF1F06FF01802504306EB800003EB35
:1024B0000010B0FBF1F0216800F00F0028448860A4
:1024C00070BD00000038014081628285C285002114
:1024D0004164222180F84210016921B10168CA6873
:1024E00042F48072CA6001684A6942F001024A619E
:1024F0000068C16841F02001C16000207047000001
:102500000148FFF7E3B90000D000002010B54FF4F8
:1025100000511348FEF720FC12490128087014D01E
:10252000887F012811D000220F4CCA777AB1002A87
:1025300015D0012210212046FEF713FC0022202195
:102540002046BDE81040FEF70CBC0122ECE701225A
:1025500020212046FEF705FC00221021F0E710BDE7
:102560000010014000000020000C0140FEE70907B8
:10257000090E002804DB00F1E02080F80014704709
:1025800000F00F0000F1E02080F8141D70470000FB
:1025900008B5FEF7F9FBFFF7ADFDFFF7F1FB334898
:1025A000416941F0010141614069002200F00100F0
:1025B000009011460E20FEF745FC0E20FEF734FC7D
:1025C000002211460F20FEF73DFC0F20FEF72CFCE9
:1025D000FFF7B0FBFFF72EFC264825490C220160CF
:1025E0004FF4E131416000218160C160C0E9041213
:1025F0008161C161FFF7A0FA08B172B6FEE700225F
:1026000011461C20FEF71EFC1C20FEF70DFC0022CC
:1026100011462520FEF716FC2520FEF705FC0022BA
:1026200011460520FEF70EFC0520FEF7FDFB0022FB
:1026300011461220FEF706FC1220FEF7F5FB0D48AE
:102640004838FEF7EFFF00BFFFF760FFFFF726FCFB
:10265000FFF798FCFFF74CFCFFF772FCFFF732FB2B
:10266000FFF706FDFFF7CCFCEEE70000001002408C
:1026700000380140D00000200102020304050607D3
:1026800008090A0B0C0D0E0F1010010202030405BD
:10269000060708090A0B0C0D0E0F101000000000B1
:1026A0000000000001020304060708090000000002
:1026B00001020304D4260008000000205800000096
:1026C000280100082C27000858000020A807000057
:1026D00044010008000000000000000000000000AD
:1026E00000000000000000000000000000000000EA
:1026F00000000000000000000000000000000000DA
:1027000000000000000000000000000000000000C9
:1027100000000000000000000000000001000000B8
:0C27200010000000000000000024F40085
:04000005080000ED02
:00000001FF
